{
    "contractName": "AnotherWallet",
    "abi": [
        {
            "anonymous": false,
            "inputs": [
                {
                    "indexed": false,
                    "internalType": "address",
                    "name": "from",
                    "type": "address"
                },
                {
                    "indexed": false,
                    "internalType": "address",
                    "name": "to",
                    "type": "address"
                },
                {
                    "indexed": false,
                    "internalType": "uint256",
                    "name": "amount",
                    "type": "uint256"
                }
            ],
            "name": "Sent",
            "type": "event"
        },
        {
            "inputs": [],
            "name": "HC",
            "outputs": [],
            "stateMutability": "nonpayable",
            "type": "function"
        },
        {
            "inputs": [
                {
                    "internalType": "address",
                    "name": "",
                    "type": "address"
                }
            ],
            "name": "balance",
            "outputs": [
                {
                    "internalType": "uint256",
                    "name": "",
                    "type": "uint256"
                }
            ],
            "stateMutability": "view",
            "type": "function"
        },
        {
            "inputs": [
                {
                    "internalType": "address",
                    "name": "receiver",
                    "type": "address"
                },
                {
                    "internalType": "uint256",
                    "name": "amount",
                    "type": "uint256"
                }
            ],
            "name": "buy",
            "outputs": [],
            "stateMutability": "payable",
            "type": "function"
        },
        {
            "inputs": [],
            "name": "minter",
            "outputs": [
                {
                    "internalType": "address",
                    "name": "",
                    "type": "address"
                }
            ],
            "stateMutability": "view",
            "type": "function"
        },
        {
            "inputs": [
                {
                    "internalType": "address",
                    "name": "receiver",
                    "type": "address"
                },
                {
                    "internalType": "uint256",
                    "name": "amount",
                    "type": "uint256"
                }
            ],
            "name": "sent",
            "outputs": [],
            "stateMutability": "payable",
            "type": "function"
        }
    ],
    "bytecode": "608060405234801561001057600080fd5b50610266806100206000396000f3fe60806040526004361061004a5760003560e01c8063075461721461004f5780633bcb2e661461008057806344b1979c146100ae578063cce7ec13146100c3578063e3d670d7146100ef575b600080fd5b34801561005b57600080fd5b50610064610134565b604080516001600160a01b039092168252519081900360200190f35b6100ac6004803603604081101561009657600080fd5b506001600160a01b038135169060200135610143565b005b3480156100ba57600080fd5b506100ac6101d1565b6100ac600480360360408110156100d957600080fd5b506001600160a01b0381351690602001356101e5565b3480156100fb57600080fd5b506101226004803603602081101561011257600080fd5b50356001600160a01b031661021e565b60408051918252519081900360200190f35b6000546001600160a01b031681565b3360009081526001602052604090205481111561015f576101cd565b336000818152600160209081526040808320805486900390556001600160a01b03861680845292819020805486019055805193845290830191909152818101839052517f3990db2d31862302a685e8086b5755072a6e2b5b780af1ee81ece35ee3cd33459181900360600190a15b5050565b600080546001600160a01b03191633179055565b6000546001600160a01b031633146101fc576101cd565b6001600160a01b03821660009081526001602052604090208054820190555050565b6001602052600090815260409020548156fea2646970667358221220bcf2931c7c5949c19bc848cac3f2ea52eeede1980344034a233401f18716573f64736f6c63430007040033",
    "sourcePath": "d:/CAU_Second_sem/Blockchain/Basic Solidity/contracts/AnotherWallet.sol",
    "compiler": {
        "name": "solc",
        "version": "0.7.4+commit.3f05b770"
    },
    "functionHashes": {
        "HC()": "44b1979c",
        "balance(address)": "e3d670d7",
        "buy(address,uint256)": "cce7ec13",
        "minter()": "07546172",
        "sent(address,uint256)": "3bcb2e66"
    },
    "gasEstimates": {
        "creation": {
            "codeDepositCost": "122800",
            "executionCost": "171",
            "totalCost": "122971"
        },
        "external": {
            "HC()": "21001",
            "balance(address)": "1190",
            "buy(address,uint256)": "21985",
            "minter()": "1015",
            "sent(address,uint256)": "44493"
        }
    }
}