{
    "contractName": "Crud",
    "abi": [
        {
            "inputs": [
                {
                    "internalType": "string",
                    "name": "name",
                    "type": "string"
                }
            ],
            "name": "create",
            "outputs": [],
            "stateMutability": "nonpayable",
            "type": "function"
        },
        {
            "inputs": [
                {
                    "internalType": "uint256",
                    "name": "id",
                    "type": "uint256"
                }
            ],
            "name": "deletes",
            "outputs": [],
            "stateMutability": "nonpayable",
            "type": "function"
        },
        {
            "inputs": [],
            "name": "nextId",
            "outputs": [
                {
                    "internalType": "uint256",
                    "name": "",
                    "type": "uint256"
                }
            ],
            "stateMutability": "view",
            "type": "function"
        },
        {
            "inputs": [
                {
                    "internalType": "uint256",
                    "name": "id",
                    "type": "uint256"
                }
            ],
            "name": "read",
            "outputs": [
                {
                    "internalType": "uint256",
                    "name": "",
                    "type": "uint256"
                },
                {
                    "internalType": "string",
                    "name": "",
                    "type": "string"
                }
            ],
            "stateMutability": "view",
            "type": "function"
        },
        {
            "inputs": [
                {
                    "internalType": "uint256",
                    "name": "id",
                    "type": "uint256"
                },
                {
                    "internalType": "string",
                    "name": "name",
                    "type": "string"
                }
            ],
            "name": "update",
            "outputs": [],
            "stateMutability": "nonpayable",
            "type": "function"
        },
        {
            "inputs": [
                {
                    "internalType": "uint256",
                    "name": "",
                    "type": "uint256"
                }
            ],
            "name": "users",
            "outputs": [
                {
                    "internalType": "uint256",
                    "name": "id",
                    "type": "uint256"
                },
                {
                    "internalType": "string",
                    "name": "name",
                    "type": "string"
                }
            ],
            "stateMutability": "view",
            "type": "function"
        }
    ],
    "bytecode": "60806040526001805534801561001457600080fd5b5061070e806100246000396000f3fe608060405234801561001057600080fd5b50600436106100625760003560e01c80633374fbb414610067578063365b98b21461008657806361b8ce8c14610122578063b6a46b3b1461013c578063ed2e5a97146101e2578063f745630f146101ff575b600080fd5b6100846004803603602081101561007d57600080fd5b50356102ac565b005b6100a36004803603602081101561009c57600080fd5b50356102ec565b6040518083815260200180602001828103825283818151815260200191508051906020019080838360005b838110156100e65781810151838201526020016100ce565b50505050905090810190601f1680156101135780820380516001836020036101000a031916815260200191505b50935050505060405180910390f35b61012a6103a4565b60408051918252519081900360200190f35b6100846004803603602081101561015257600080fd5b81019060208101813564010000000081111561016d57600080fd5b82018360208201111561017f57600080fd5b803590602001918460018302840111640100000000831117156101a157600080fd5b91908080601f0160208091040260200160405190810160405280939291908181526020018383808284376000920191909152509295506103aa945050505050565b6100a3600480360360208110156101f857600080fd5b5035610431565b6100846004803603604081101561021557600080fd5b8135919081019060408101602082013564010000000081111561023757600080fd5b82018360208201111561024957600080fd5b8035906020019184600183028401116401000000008311171561026b57600080fd5b91908080601f016020809104026020016040519081016040528093929190818152602001838380828437600092019190915250929550610525945050505050565b60006102b782610564565b9050600081815481106102c657fe5b600091825260208220600290910201818155906102e660018301826105f0565b50505050565b600081815481106102fc57600080fd5b60009182526020918290206002918202018054600180830180546040805193821615610100026000190190911695909504601f810187900487028301870190955284825291955091939192909183018282801561039a5780601f1061036f5761010080835404028352916020019161039a565b820191906000526020600020905b81548152906001019060200180831161037d57829003601f168201915b5050505050905082565b60015481565b6040805180820190915260018054825260208083018481526000805493840181558052835160029093027f290decd9548b62a8d60345a988386fc84ba6bc95484008f6362f93160ef3e5638101938455905180516102e6937f290decd9548b62a8d60345a988386fc84ba6bc95484008f6362f93160ef3e564909301929190910190610637565b60006060600061044084610564565b90506000818154811061044f57fe5b9060005260206000209060020201600001546000828154811061046e57fe5b9060005260206000209060020201600101808054600181600116156101000203166002900480601f0160208091040260200160405190810160405280929190818152602001828054600181600116156101000203166002900480156105145780601f106104e957610100808354040283529160200191610514565b820191906000526020600020905b8154815290600101906020018083116104f757829003601f168201915b505050505090509250925050915091565b600061053083610564565b9050816000828154811061054057fe5b906000526020600020906002020160010190805190602001906102e6929190610637565b6000805b6000548110156105a657826000828154811061058057fe5b9060005260206000209060020201600001541461059e5790506105eb565b600101610568565b506040805162461bcd60e51b81526020600482015260146024820152735573657220646f6573206e6f742065786973742160601b604482015290519081900360640190fd5b919050565b50805460018160011615610100020316600290046000825580601f106106165750610634565b601f01602090049060005260206000209081019061063491906106c3565b50565b828054600181600116156101000203166002900490600052602060002090601f01602090048101928261066d57600085556106b3565b82601f1061068657805160ff19168380011785556106b3565b828001600101855582156106b3579182015b828111156106b3578251825591602001919060010190610698565b506106bf9291506106c3565b5090565b5b808211156106bf57600081556001016106c456fea26469706673582212200dd07406641f57f73393ba023075a81b4da3530712f36ab9804bb1bd23e87b3464736f6c63430007040033",
    "sourcePath": "d:/CAU_Second_sem/Blockchain/Basic Solidity/contracts/Crud.sol",
    "compiler": {
        "name": "solc",
        "version": "0.7.4+commit.3f05b770"
    },
    "functionHashes": {
        "create(string)": "b6a46b3b",
        "deletes(uint256)": "3374fbb4",
        "nextId()": "61b8ce8c",
        "read(uint256)": "ed2e5a97",
        "update(uint256,string)": "f745630f",
        "users(uint256)": "365b98b2"
    },
    "gasEstimates": {
        "creation": {
            "codeDepositCost": "361200",
            "executionCost": "20405",
            "totalCost": "381605"
        },
        "external": {
            "create(string)": "infinite",
            "deletes(uint256)": "infinite",
            "nextId()": "1020",
            "read(uint256)": "infinite",
            "update(uint256,string)": "infinite",
            "users(uint256)": "infinite"
        },
        "internal": {
            "_find(uint256)": "infinite"
        }
    }
}