{
    "contractName": "HelloBlockchain",
    "abi": [
        {
            "inputs": [
                {
                    "internalType": "string",
                    "name": "message",
                    "type": "string"
                }
            ],
            "stateMutability": "nonpayable",
            "type": "constructor"
        },
        {
            "anonymous": false,
            "inputs": [
                {
                    "indexed": false,
                    "internalType": "string",
                    "name": "stateData",
                    "type": "string"
                }
            ],
            "name": "StateChanged",
            "type": "event"
        },
        {
            "inputs": [],
            "name": "RequestMessage",
            "outputs": [
                {
                    "internalType": "string",
                    "name": "",
                    "type": "string"
                }
            ],
            "stateMutability": "view",
            "type": "function"
        },
        {
            "inputs": [],
            "name": "Requestor",
            "outputs": [
                {
                    "internalType": "address",
                    "name": "",
                    "type": "address"
                }
            ],
            "stateMutability": "view",
            "type": "function"
        },
        {
            "inputs": [],
            "name": "Responder",
            "outputs": [
                {
                    "internalType": "address",
                    "name": "",
                    "type": "address"
                }
            ],
            "stateMutability": "view",
            "type": "function"
        },
        {
            "inputs": [],
            "name": "ResponseMessage",
            "outputs": [
                {
                    "internalType": "string",
                    "name": "",
                    "type": "string"
                }
            ],
            "stateMutability": "view",
            "type": "function"
        },
        {
            "inputs": [
                {
                    "internalType": "string",
                    "name": "requestMessage",
                    "type": "string"
                }
            ],
            "name": "SendRequest",
            "outputs": [],
            "stateMutability": "nonpayable",
            "type": "function"
        },
        {
            "inputs": [
                {
                    "internalType": "string",
                    "name": "responseMessage",
                    "type": "string"
                }
            ],
            "name": "SendResponse",
            "outputs": [],
            "stateMutability": "nonpayable",
            "type": "function"
        },
        {
            "inputs": [],
            "name": "State",
            "outputs": [
                {
                    "internalType": "enum HelloBlockchain.StateType",
                    "name": "",
                    "type": "uint8"
                }
            ],
            "stateMutability": "view",
            "type": "function"
        }
    ],
    "bytecode": "608060405234801561001057600080fd5b5060405161074e38038061074e8339818101604052602081101561003357600080fd5b810190808051604051939291908464010000000082111561005357600080fd5b90830190602082018581111561006857600080fd5b825164010000000081118282018810171561008257600080fd5b82525081516020918201929091019080838360005b838110156100af578181015183820152602001610097565b50505050905090810190601f1680156100dc5780820380516001836020036101000a031916815260200191505b50604052505081516100f691506002906020840190610151565b506000805460ff191690556040805160208082526007908201526614995c5d595cdd60ca1b8183015290517f8fbf346523616c015d34c71713ea41bb98008282341b0f191f578d20d7ed26e29181900360600190a1506101f2565b828054600181600116156101000203166002900490600052602060002090601f01602090048101928261018757600085556101cd565b82601f106101a057805160ff19168380011785556101cd565b828001600101855582156101cd579182015b828111156101cd5782518255916020019190600101906101b2565b506101d99291506101dd565b5090565b5b808211156101d957600081556001016101de565b61054d806102016000396000f3fe608060405234801561001057600080fd5b506004361061007d5760003560e01c8063d181ada11161005b578063d181ada11461024d578063e750e2da14610271578063f1b6dccd14610279578063fd05116c146102a25761007d565b80635ab28ecb14610082578063829c2d6d146100ff578063a7a1ba15146101a7575b600080fd5b61008a6102aa565b6040805160208082528351818301528351919283929083019185019080838360005b838110156100c45781810151838201526020016100ac565b50505050905090810190601f1680156100f15780820380516001836020036101000a031916815260200191505b509250505060405180910390f35b6101a56004803603602081101561011557600080fd5b81019060208101813564010000000081111561013057600080fd5b82018360208201111561014257600080fd5b8035906020019184600183028401116401000000008311171561016457600080fd5b91908080601f016020809104026020016040519081016040528093929190818152602001838380828437600092019190915250929550610338945050505050565b005b6101a5600480360360208110156101bd57600080fd5b8101906020810181356401000000008111156101d857600080fd5b8201836020820111156101ea57600080fd5b8035906020019184600183028401116401000000008311171561020c57600080fd5b91908080601f0160208091040260200160405190810160405280939291908181526020018383808284376000920191909152509295506103ba945050505050565b6102556103f2565b604080516001600160a01b039092168252519081900360200190f35b61008a610401565b610281610459565b6040518082600181111561029157fe5b815260200191505060405180910390f35b610255610462565b6003805460408051602060026001851615610100026000190190941693909304601f810184900484028201840190925281815292918301828280156103305780601f1061030557610100808354040283529160200191610330565b820191906000526020600020905b81548152906001019060200180831161031357829003601f168201915b505050505081565b600180546001600160a01b03191633179055805161035d906003906020840190610476565b506000805460ff1916600117905560408051602080825260089082015267526573706f6e736560c01b8183015290517f8fbf346523616c015d34c71713ea41bb98008282341b0f191f578d20d7ed26e2916060908290030190a150565b60008054610100600160a81b031916336101000217905580516103e4906002906020840190610476565b50506000805460ff19169055565b6001546001600160a01b031681565b6002805460408051602060018416156101000260001901909316849004601f810184900484028201840190925281815292918301828280156103305780601f1061030557610100808354040283529160200191610330565b60005460ff1681565b60005461010090046001600160a01b031681565b828054600181600116156101000203166002900490600052602060002090601f0160209004810192826104ac57600085556104f2565b82601f106104c557805160ff19168380011785556104f2565b828001600101855582156104f2579182015b828111156104f25782518255916020019190600101906104d7565b506104fe929150610502565b5090565b5b808211156104fe576000815560010161050356fea26469706673582212205b4b8b53bc406a22d158b9ac32a36e21e477d0ca9803f074ee50c6f58e6ae77064736f6c63430007040033",
    "sourcePath": "d:/CAU_Second_sem/Blockchain/Basic Solidity/contracts/helloBlockchain.sol",
    "compiler": {
        "name": "solc",
        "version": "0.7.4+commit.3f05b770"
    },
    "functionHashes": {
        "RequestMessage()": "e750e2da",
        "Requestor()": "fd05116c",
        "Responder()": "d181ada1",
        "ResponseMessage()": "5ab28ecb",
        "SendRequest(string)": "a7a1ba15",
        "SendResponse(string)": "829c2d6d",
        "State()": "f1b6dccd"
    },
    "gasEstimates": {
        "creation": {
            "codeDepositCost": "271400",
            "executionCost": "infinite",
            "totalCost": "infinite"
        },
        "external": {
            "RequestMessage()": "infinite",
            "Requestor()": "1114",
            "Responder()": "1037",
            "ResponseMessage()": "infinite",
            "SendRequest(string)": "infinite",
            "SendResponse(string)": "infinite",
            "State()": "1081"
        }
    }
}