{
    "contractName": "MyContract",
    "abi": [
        {
            "inputs": [
                {
                    "internalType": "uint256",
                    "name": "_value1",
                    "type": "uint256"
                },
                {
                    "internalType": "uint256",
                    "name": "_value2",
                    "type": "uint256"
                }
            ],
            "name": "calculate",
            "outputs": [],
            "stateMutability": "nonpayable",
            "type": "function"
        },
        {
            "inputs": [],
            "name": "value",
            "outputs": [
                {
                    "internalType": "uint256",
                    "name": "",
                    "type": "uint256"
                }
            ],
            "stateMutability": "view",
            "type": "function"
        }
    ],
    "bytecode": "608060405234801561001057600080fd5b5060dc8061001f6000396000f3fe6080604052348015600f57600080fd5b506004361060325760003560e01c80633fa4f2451460375780638dfa436314604f575b600080fd5b603d6071565b60408051918252519081900360200190f35b606f60048036036040811015606357600080fd5b50803590602001356077565b005b60005481565b607f82826086565b6000555050565b6000808211609357600080fd5b6000828481609d57fe5b0494935050505056fea26469706673582212206776035bb6452a161cc9c776b2e556a9d6e64aad006accdb3d61cde57bc01aac64736f6c63430007040033",
    "sourcePath": "d:/CAU_Second_sem/Blockchain/Basic Solidity/contracts/MyContract.sol",
    "compiler": {
        "name": "solc",
        "version": "0.7.4+commit.3f05b770"
    },
    "functionHashes": {
        "calculate(uint256,uint256)": "8dfa4363",
        "value()": "3fa4f245"
    },
    "gasEstimates": {
        "creation": {
            "codeDepositCost": "44000",
            "executionCost": "93",
            "totalCost": "44093"
        },
        "external": {
            "calculate(uint256,uint256)": "20309",
            "value()": "976"
        }
    }
}