{
    "contractName": "PeopleDatabase",
    "abi": [
        {
            "inputs": [
                {
                    "internalType": "string",
                    "name": "_firstName",
                    "type": "string"
                },
                {
                    "internalType": "string",
                    "name": "_lastName",
                    "type": "string"
                }
            ],
            "name": "addPerson",
            "outputs": [],
            "stateMutability": "nonpayable",
            "type": "function"
        },
        {
            "inputs": [
                {
                    "internalType": "uint256",
                    "name": "",
                    "type": "uint256"
                }
            ],
            "name": "people",
            "outputs": [
                {
                    "internalType": "uint256",
                    "name": "_id",
                    "type": "uint256"
                },
                {
                    "internalType": "string",
                    "name": "_firstName",
                    "type": "string"
                },
                {
                    "internalType": "string",
                    "name": "_lastName",
                    "type": "string"
                }
            ],
            "stateMutability": "view",
            "type": "function"
        },
        {
            "inputs": [],
            "name": "peopleCount",
            "outputs": [
                {
                    "internalType": "uint256",
                    "name": "",
                    "type": "uint256"
                }
            ],
            "stateMutability": "view",
            "type": "function"
        }
    ],
    "bytecode": "608060405260008055635fc23f44600255635fd7574460035534801561002457600080fd5b50610542806100346000396000f3fe608060405234801561001057600080fd5b50600436106100415760003560e01c806322f5b58d14610046578063267c68e0146101755780639e7a13ad1461018f575b600080fd5b6101736004803603604081101561005c57600080fd5b81019060208101813564010000000081111561007757600080fd5b82018360208201111561008957600080fd5b803590602001918460018302840111640100000000831117156100ab57600080fd5b91908080601f01602080910402602001604051908101604052809392919081815260200183838082843760009201919091525092959493602081019350359150506401000000008111156100fe57600080fd5b82018360208201111561011057600080fd5b8035906020019184600183028401116401000000008311171561013257600080fd5b91908080601f016020809104026020016040519081016040528093929190818152602001838380828437600092019190915250929550610291945050505050565b005b61017d610322565b60408051918252519081900360200190f35b6101ac600480360360208110156101a557600080fd5b5035610328565b604051808481526020018060200180602001838103835285818151815260200191508051906020019080838360005b838110156101f35781810151838201526020016101db565b50505050905090810190601f1680156102205780820380516001836020036101000a031916815260200191505b50838103825284518152845160209182019186019080838360005b8381101561025357818101518382015260200161023b565b50505050905090810190601f1680156102805780820380516001836020036101000a031916815260200191505b509550505050505060405180910390f35b60025442101580156102a557506003544211155b6102ae57600080fd5b6102b6610460565b604080516060810182526000805480835260208084018781528486018790529183526001808252949092208351815590518051939491936102ff9392850192919091019061046b565b506040820151805161031b91600284019160209091019061046b565b5050505050565b60005481565b600160208181526000928352604092839020805481840180548651600296821615610100026000190190911695909504601f810185900485028601850190965285855290949193929091908301828280156103c45780601f10610399576101008083540402835291602001916103c4565b820191906000526020600020905b8154815290600101906020018083116103a757829003601f168201915b50505060028085018054604080516020601f60001961010060018716150201909416959095049283018590048502810185019091528181529596959450909250908301828280156104565780601f1061042b57610100808354040283529160200191610456565b820191906000526020600020905b81548152906001019060200180831161043957829003601f168201915b5050505050905083565b600080546001019055565b828054600181600116156101000203166002900490600052602060002090601f0160209004810192826104a157600085556104e7565b82601f106104ba57805160ff19168380011785556104e7565b828001600101855582156104e7579182015b828111156104e75782518255916020019190600101906104cc565b506104f39291506104f7565b5090565b5b808211156104f357600081556001016104f856fea2646970667358221220db81e865f6fa4cdc31263addda7a8b1cc5b4cdc8338f7cdcc1725998da3dc1cc64736f6c63430007040033",
    "sourcePath": "d:/CAU_Second_sem/Blockchain/Basic Solidity/contracts/PeopleDataBase.sol",
    "compiler": {
        "name": "solc",
        "version": "0.7.4+commit.3f05b770"
    },
    "functionHashes": {
        "addPerson(string,string)": "22f5b58d",
        "people(uint256)": "9e7a13ad",
        "peopleCount()": "267c68e0"
    },
    "gasEstimates": {
        "creation": {
            "codeDepositCost": "269200",
            "executionCost": "45330",
            "totalCost": "314530"
        },
        "external": {
            "addPerson(string,string)": "infinite",
            "people(uint256)": "infinite",
            "peopleCount()": "998"
        },
        "internal": {
            "incrementCount()": "20824"
        }
    }
}